:100000000C9434000C9449000C9449000C94490061
:100010000C9449000C9449000C9449000C9449003C
:100020000C9449000C9449000C9449000C9449002C
:100030000C9449000C9449000C9449000C9449001C
:100040000C9449000C9449000C9449000C9449000C
:100050000C9449000C9449000C9449000C944900FC
:100060000C9449000C94490011241FBECFEFD8E036
:10007000DEBFCDBF11E0A0E0B1E0E6ECF7E002C0EA
:1000800005900D92A031B107D9F70E94AD010C94F3
:10009000E1030C940000883091059CF4ECE7F0E05B
:1000A0009081907E982B908347B121E030E0B90198
:1000B00002C0660F771F8A95E2F7CB0180958423F3
:1000C00087B90895ECE7F0E020812F73002496951E
:1000D00087950794969587950794982F802D822B66
:1000E00080830895EAE7F0E090819770892B808300
:1000F00008950F931F93CF93DF938B01EA010E9422
:100100004B00C8010E946200CE010E947200EAE723
:10011000F0E0808180688083DF91CF911F910F9103
:100120000895EAE7F0E0808180648083808184FF25
:10013000FDCF0895609178008091790070E0782B70
:10014000072E000C880B990B0E945B0220E93EE30E
:100150004AEF5EE30E94BF020E942C030E9423022A
:10016000CB01089523B130E0A90102C05595479510
:100170008A95E2F7CA0181709927089559989BB131
:100180009F70282F207F922B9BB95B9AE3EDF0E3C1
:100190003197F1F700C000005B98E3EDF0E3319791
:1001A000F1F700C000002BB12F70F0E18F9FC0016C
:1001B0001124822B8BB95B9A83ED90E30197F1F7C1
:1001C00000C000005B98089582E00E94BE00089580
:1001D0008FEF8AB9239A219A229A5A9882E00E9434
:1001E000BE0087EA91E60197F1F700C0000088E2BF
:1001F0000E94BE0087EA91E60197F1F700C0000077
:1002000081E00E94BE0087EA91E60197F1F700C005
:10021000000087EA91E60197F1F700C0000086E050
:100220000E94BE0087EA91E60197F1F700C0000046
:100230008CE00E94BE0087EA91E60197F1F700C0CA
:10024000000080E80E94BE000895599A9BB19F70FB
:10025000282F207F922B9BB95B9AE3EDF0E3319737
:10026000F1F700C000005B98E3EDF0E33197F1F7A0
:1002700000C000002BB12F70F0E18F9FC00111244E
:10028000822B8BB95B9A83ED90E30197F1F700C065
:1002900000005B980895CF93DF93EC018881882359
:1002A00031F021960E94250189918111FBCFDF91C8
:1002B000CF910895CF93DF93CDB7DEB728970FB6D0
:1002C000F894DEBF0FBECDBF4AE050E0BE016F5FC5
:1002D0007F4F0E94A103CE0101960E944B012896F8
:1002E0000FB6F894DEBF0FBECDBFDF91CF9108955A
:1002F0000F931F93CF93DF938C010E94E400C5E01E
:10030000D0E084E10E94BE002197D9F7C8010E9485
:100310005A0181E091E00E944B01DF91CF911F9142
:100320000F9108950F931F93CF93DF938C0180EC6F
:100330000E94BE00C5E0D0E084E10E94BE0021978B
:10034000D9F7C8010E945A0180E091E00E944B0158
:10035000DF91CF911F910F91089582E087B90E949C
:10036000E80047E050E061E070E080E090E00E944B
:1003700079000E9491000E949A006C0184E091E053
:100380000E944B0180EC0E94BE008AE091E00E9436
:100390004B01C6010E9478018DEF92E00E9492010C
:1003A00081E880938000E1E8F0E0808181608083D3
:1003B00086E990E09093890080938800CDEFD2E0A9
:1003C0000DEF12E00F2EF8E8AF2EB12CF02D02C089
:1003D00067018E010E9491000E949A007C0180E0DA
:1003E00090E00E94B200892B69F0043185E0180783
:1003F0005CF4C45BDF4FF501808191810F9691839E
:10040000808303C0E80101C0E80182E090E00E941F
:10041000B200892B59F01016110644F4CC54D109BE
:10042000F501808191810F9791838083CE14DF0441
:1004300019F0C7010E9478010C171D0749F2CE017F
:100440000E949201C5CF0E942A026894B1110C94B7
:10045000B90208950E949E0288F09F5798F0B92F24
:100460009927B751B0F0E1F0660F771F881F991FE9
:100470001AF0BA95C9F714C0B13091F00E94B802D1
:10048000B1E008950C94B802672F782F8827B85FE1
:1004900039F0B93FCCF3869577956795B395D9F741
:1004A0003EF490958095709561957F4F8F4F9F4F4B
:1004B0000895E89409C097FB3EF490958095709557
:1004C00061957F4F8F4F9F4F9923A9F0F92F96E9A0
:1004D000BB279395F695879577956795B795F11115
:1004E000F8CFFAF4BB0F11F460FF1BC06F5F7F4FB2
:1004F0008F4F9F4F16C0882311F096E911C07723C4
:1005000021F09EE8872F762F05C0662371F096E8CC
:10051000862F70E060E02AF09A95660F771F881F9B
:10052000DAF7880F9695879597F9089557FD9058B3
:10053000440F551F59F05F3F71F04795880F97FBA7
:10054000991F61F09F3F79F0879508951216130661
:100550001406551FF2CF4695F1DF08C01616170690
:100560001806991FF1CF86957105610508940895C5
:10057000E894BB2766277727CB0197F908950E9457
:10058000D2020C9490030E94820338F00E948903E7
:1005900020F0952311F00C9450030C947F03112448
:1005A0000C94B9020E94960270F3959FC1F3950FC7
:1005B00050E0551F629FF001729FBB27F00DB11DE7
:1005C000639FAA27F00DB11DAA1F649F6627B00D77
:1005D000A11D661F829F2227B00DA11D621F739F60
:1005E000B00DA11D621F839FA00D611D221F749F6E
:1005F0003327A00D611D231F849F600D211D822FB5
:10060000762F6A2F11249F5750409AF0F1F08823DB
:100610004AF0EE0FFF1FBB1F661F771F881F915008
:100620005040A9F79E3F510580F00C9450030C9464
:10063000B9025F3FE4F3983ED4F3869577956795CA
:10064000B795F795E7959F5FC1F7FE2B880F911D32
:100650009695879597F908950E949E02E8F09E3737
:10066000E8F09639B8F49E3848F4672F782F882739
:10067000985FF9CF86957795679593959539D0F3DF
:10068000B62FB1706B0F711D811D20F48795779582
:10069000679593950C9456030C9471030C94B902CE
:1006A00097F99F6780E870E060E00895882371F40F
:1006B000772321F09850872B762F07C0662311F4FB
:1006C00099270DC09051862B70E060E02AF09A9532
:1006D000660F771F881FDAF7880F9695879597F929
:1006E00008959F3F31F0915020F487957795679555
:1006F000B795880F911D9695879597F908959FEF67
:1007000080EC089500240A941616170618060906A8
:10071000089500240A941216130614060506089577
:10072000092E0394000C11F4882352F0BB0F40F4FF
:10073000BF2B11F460FF04C06F5F7F4F8F4F9F4F3F
:1007400008954532510520F4423010F00C94AC036A
:10075000FB011082CB010895BB274A3031F4992365
:1007600022F4BDE2909581959F4F0C94B803BB276E
:10077000FB015527AA27880F991FAA1FA41710F05D
:10078000A41B83955051B9F7A05DAA3308F0A95D69
:10079000A193009779F7B111B1931192CB010C9409
:1007A000D103DC01FC01672F71917723E1F73297C8
:1007B00004C07C916D9370836291AE17BF07C8F33C
:0607C0000895F894FFCF3C
:1007C6002020200054656D703A0052504D3A2000AA
:00000001FF
